{
  "contractName": "ProductRegistry",
  "abi": [
    {
      "anonymous": false,
      "inputs": [
        {
          "indexed": false,
          "internalType": "string",
          "name": "message",
          "type": "string"
        },
        {
          "indexed": false,
          "internalType": "address",
          "name": "currentOwner",
          "type": "address"
        },
        {
          "indexed": false,
          "internalType": "address",
          "name": "sender",
          "type": "address"
        },
        {
          "indexed": false,
          "internalType": "uint256",
          "name": "value",
          "type": "uint256"
        }
      ],
      "name": "DebugEvent",
      "type": "event"
    },
    {
      "anonymous": false,
      "inputs": [
        {
          "indexed": false,
          "internalType": "string",
          "name": "productSN",
          "type": "string"
        },
        {
          "indexed": false,
          "internalType": "string",
          "name": "manufacturerId",
          "type": "string"
        }
      ],
      "name": "ProductAdded",
      "type": "event"
    },
    {
      "anonymous": false,
      "inputs": [
        {
          "indexed": false,
          "internalType": "string",
          "name": "productSN",
          "type": "string"
        },
        {
          "indexed": false,
          "internalType": "string",
          "name": "consumerId",
          "type": "string"
        },
        {
          "indexed": false,
          "internalType": "address",
          "name": "consumerAddress",
          "type": "address"
        },
        {
          "indexed": false,
          "internalType": "uint256",
          "name": "price",
          "type": "uint256"
        }
      ],
      "name": "ProductSoldToConsumer",
      "type": "event"
    },
    {
      "anonymous": false,
      "inputs": [
        {
          "indexed": false,
          "internalType": "string",
          "name": "productSN",
          "type": "string"
        },
        {
          "indexed": false,
          "internalType": "string",
          "name": "sellerId",
          "type": "string"
        },
        {
          "indexed": false,
          "internalType": "address",
          "name": "sellerAddress",
          "type": "address"
        },
        {
          "indexed": false,
          "internalType": "uint256",
          "name": "price",
          "type": "uint256"
        }
      ],
      "name": "ProductSoldToSeller",
      "type": "event"
    },
    {
      "inputs": [
        {
          "internalType": "string",
          "name": "",
          "type": "string"
        }
      ],
      "name": "products",
      "outputs": [
        {
          "internalType": "uint256",
          "name": "productId",
          "type": "uint256"
        },
        {
          "internalType": "string",
          "name": "manufacturerId",
          "type": "string"
        },
        {
          "internalType": "string",
          "name": "productSN",
          "type": "string"
        },
        {
          "internalType": "string",
          "name": "productName",
          "type": "string"
        },
        {
          "internalType": "uint256",
          "name": "productPrice",
          "type": "uint256"
        },
        {
          "internalType": "address",
          "name": "currentOwner",
          "type": "address"
        },
        {
          "internalType": "string",
          "name": "sellerId",
          "type": "string"
        },
        {
          "internalType": "string",
          "name": "consumerId",
          "type": "string"
        },
        {
          "internalType": "bool",
          "name": "isAuthentic",
          "type": "bool"
        }
      ],
      "stateMutability": "view",
      "type": "function",
      "constant": true
    },
    {
      "inputs": [
        {
          "internalType": "string",
          "name": "_manufacturerId",
          "type": "string"
        },
        {
          "internalType": "string",
          "name": "_productSN",
          "type": "string"
        },
        {
          "internalType": "string",
          "name": "_productName",
          "type": "string"
        },
        {
          "internalType": "uint256",
          "name": "_productPrice",
          "type": "uint256"
        }
      ],
      "name": "addProduct",
      "outputs": [],
      "stateMutability": "nonpayable",
      "type": "function"
    },
    {
      "inputs": [
        {
          "internalType": "string",
          "name": "_productSN",
          "type": "string"
        },
        {
          "internalType": "string",
          "name": "_sellerId",
          "type": "string"
        },
        {
          "internalType": "address",
          "name": "_sellerAddress",
          "type": "address"
        }
      ],
      "name": "sellProductToSeller",
      "outputs": [],
      "stateMutability": "payable",
      "type": "function",
      "payable": true
    },
    {
      "inputs": [
        {
          "internalType": "string",
          "name": "_productSN",
          "type": "string"
        },
        {
          "internalType": "string",
          "name": "_consumerId",
          "type": "string"
        },
        {
          "internalType": "address",
          "name": "_consumerAddress",
          "type": "address"
        }
      ],
      "name": "sellProductToConsumer",
      "outputs": [],
      "stateMutability": "payable",
      "type": "function",
      "payable": true
    },
    {
      "inputs": [
        {
          "internalType": "string",
          "name": "_productSN",
          "type": "string"
        }
      ],
      "name": "verifyProduct",
      "outputs": [
        {
          "components": [
            {
              "internalType": "uint256",
              "name": "productId",
              "type": "uint256"
            },
            {
              "internalType": "string",
              "name": "manufacturerId",
              "type": "string"
            },
            {
              "internalType": "string",
              "name": "productSN",
              "type": "string"
            },
            {
              "internalType": "string",
              "name": "productName",
              "type": "string"
            },
            {
              "internalType": "uint256",
              "name": "productPrice",
              "type": "uint256"
            },
            {
              "internalType": "address",
              "name": "currentOwner",
              "type": "address"
            },
            {
              "internalType": "string",
              "name": "sellerId",
              "type": "string"
            },
            {
              "internalType": "string",
              "name": "consumerId",
              "type": "string"
            },
            {
              "internalType": "bool",
              "name": "isAuthentic",
              "type": "bool"
            }
          ],
          "internalType": "struct ProductRegistry.Product",
          "name": "",
          "type": "tuple"
        }
      ],
      "stateMutability": "view",
      "type": "function",
      "constant": true
    }
  ],
  "bytecode": "0x608060405234801561001057600080fd5b5061132b806100206000396000f3fe60806040526004361061004a5760003560e01c80630186a4231461004f5780631d8ad46d1461008d5780638165fed5146100a257806392efc453146100c2578063d3929e25146100ef575b600080fd5b34801561005b57600080fd5b5061006f61006a366004610dce565b610102565b60405161008499989796959493929190610e5b565b60405180910390f35b6100a061009b366004610ef5565b61040d565b005b3480156100ae57600080fd5b506100a06100bd366004610f79565b6105aa565b3480156100ce57600080fd5b506100e26100dd366004610dce565b6107b9565b6040516100849190611009565b6100a06100fd366004610ef5565b610ba5565b80516020818301810180516000825292820191909301209152805460018201805491929161012f906110f0565b80601f016020809104026020016040519081016040528092919081815260200182805461015b906110f0565b80156101a85780601f1061017d576101008083540402835291602001916101a8565b820191906000526020600020905b81548152906001019060200180831161018b57829003601f168201915b5050505050908060020180546101bd906110f0565b80601f01602080910402602001604051908101604052809291908181526020018280546101e9906110f0565b80156102365780601f1061020b57610100808354040283529160200191610236565b820191906000526020600020905b81548152906001019060200180831161021957829003601f168201915b50505050509080600301805461024b906110f0565b80601f0160208091040260200160405190810160405280929190818152602001828054610277906110f0565b80156102c45780601f10610299576101008083540402835291602001916102c4565b820191906000526020600020905b8154815290600101906020018083116102a757829003601f168201915b5050505060048301546005840154600685018054949592946001600160a01b039092169350906102f3906110f0565b80601f016020809104026020016040519081016040528092919081815260200182805461031f906110f0565b801561036c5780601f106103415761010080835404028352916020019161036c565b820191906000526020600020905b81548152906001019060200180831161034f57829003601f168201915b505050505090806007018054610381906110f0565b80601f01602080910402602001604051908101604052809291908181526020018280546103ad906110f0565b80156103fa5780601f106103cf576101008083540402835291602001916103fa565b820191906000526020600020905b8154815290600101906020018083116103dd57829003601f168201915b5050506008909301549192505060ff1689565b6000808460405161041e919061112a565b90815260200160405180910390209050600081600201805461043f906110f0565b9050116104675760405162461bcd60e51b815260040161045e90611146565b60405180910390fd5b60058101546001600160a01b031633146104bd5760405162461bcd60e51b815260206004820152601760248201527613db9b1e481d1a19481bdddb995c8818d85b881cd95b1b604a1b604482015260640161045e565b8060040154341461050c5760405162461bcd60e51b8152602060048201526019602482015278125b98dbdc9c9958dd0811551208185b5bdd5b9d081cd95b9d603a1b604482015260640161045e565b6007810161051a84826111c5565b506005810180546001600160a01b0384166001600160a01b031990911617905560405133903480156108fc02916000818181858888f19350505050158015610566573d6000803e3d6000fd5b507fd4646990dcea679998b3d8999e2c933c5f7a14ed739561c0c79390b14dfbf7da8484843460405161059c9493929190611285565b60405180910390a150505050565b6000836040516105ba919061112a565b908152602001604051809103902060020180546105d6906110f0565b15905061061e5760405162461bcd60e51b815260206004820152601660248201527550726f6475637420616c72656164792065786973747360501b604482015260640161045e565b6040805161012081019091528061063985610140830161112a565b6040516020818303038152906040528051906020012060001c8152602001858152602001848152602001838152602001828152602001336001600160a01b03168152602001604051806020016040528060008152508152602001604051806020016040528060008152508152602001600115158152506000846040516106bf919061112a565b90815260405160209181900382019020825181559082015160018201906106e690826111c5565b50604082015160028201906106fb90826111c5565b506060820151600382019061071090826111c5565b506080820151600482015560a08201516005820180546001600160a01b0319166001600160a01b0390921691909117905560c0820151600682019061075590826111c5565b5060e0820151600782019061076a90826111c5565b5061010091909101516008909101805460ff19169115159190911790556040517f50d3c24bed1484121cd34fb35cea80691f70b0818948c325aef1206b134544339061059c90859087906112c7565b610813604051806101200160405280600081526020016060815260200160608152602001606081526020016000815260200160006001600160a01b0316815260200160608152602001606081526020016000151581525090565b60008083604051610824919061112a565b90815260200160405180910390206002018054610840906110f0565b90501161085f5760405162461bcd60e51b815260040161045e90611146565b60008260405161086f919061112a565b908152602001604051809103902060405180610120016040529081600082015481526020016001820180546108a3906110f0565b80601f01602080910402602001604051908101604052809291908181526020018280546108cf906110f0565b801561091c5780601f106108f15761010080835404028352916020019161091c565b820191906000526020600020905b8154815290600101906020018083116108ff57829003601f168201915b50505050508152602001600282018054610935906110f0565b80601f0160208091040260200160405190810160405280929190818152602001828054610961906110f0565b80156109ae5780601f10610983576101008083540402835291602001916109ae565b820191906000526020600020905b81548152906001019060200180831161099157829003601f168201915b505050505081526020016003820180546109c7906110f0565b80601f01602080910402602001604051908101604052809291908181526020018280546109f3906110f0565b8015610a405780601f10610a1557610100808354040283529160200191610a40565b820191906000526020600020905b815481529060010190602001808311610a2357829003601f168201915b50505091835250506004820154602082015260058201546001600160a01b03166040820152600682018054606090920191610a7a906110f0565b80601f0160208091040260200160405190810160405280929190818152602001828054610aa6906110f0565b8015610af35780601f10610ac857610100808354040283529160200191610af3565b820191906000526020600020905b815481529060010190602001808311610ad657829003601f168201915b50505050508152602001600782018054610b0c906110f0565b80601f0160208091040260200160405190810160405280929190818152602001828054610b38906110f0565b8015610b855780601f10610b5a57610100808354040283529160200191610b85565b820191906000526020600020905b815481529060010190602001808311610b6857829003601f168201915b50505091835250506008919091015460ff16151560209091015292915050565b60008084604051610bb6919061112a565b908152602001604051809103902090506000816002018054610bd7906110f0565b905011610bf65760405162461bcd60e51b815260040161045e90611146565b60058101546001600160a01b03163314610c4c5760405162461bcd60e51b815260206004820152601760248201527613db9b1e481d1a19481bdddb995c8818d85b881cd95b1b604a1b604482015260640161045e565b80600401543414610c9b5760405162461bcd60e51b8152602060048201526019602482015278125b98dbdc9c9958dd0811551208185b5bdd5b9d081cd95b9d603a1b604482015260640161045e565b60068101610ca984826111c5565b506005810180546001600160a01b0384166001600160a01b031990911617905560405133903480156108fc02916000818181858888f19350505050158015610cf5573d6000803e3d6000fd5b507ff64a5f06285776d619776e8027c3c1487f8dcc868ecfd91c8fb038f2aafe84fc8484843460405161059c9493929190611285565b634e487b7160e01b600052604160045260246000fd5b600082601f830112610d5257600080fd5b813567ffffffffffffffff80821115610d6d57610d6d610d2b565b604051601f8301601f19908116603f01168101908282118183101715610d9557610d95610d2b565b81604052838152866020858801011115610dae57600080fd5b836020870160208301376000602085830101528094505050505092915050565b600060208284031215610de057600080fd5b813567ffffffffffffffff811115610df757600080fd5b610e0384828501610d41565b949350505050565b60005b83811015610e26578181015183820152602001610e0e565b50506000910152565b60008151808452610e47816020860160208601610e0b565b601f01601f19169290920160200192915050565b60006101208b8352806020840152610e758184018c610e2f565b90508281036040840152610e89818b610e2f565b90508281036060840152610e9d818a610e2f565b608084018990526001600160a01b03881660a085015283810360c08501529050610ec78187610e2f565b905082810360e0840152610edb8186610e2f565b9150508215156101008301529a9950505050505050505050565b600080600060608486031215610f0a57600080fd5b833567ffffffffffffffff80821115610f2257600080fd5b610f2e87838801610d41565b94506020860135915080821115610f4457600080fd5b50610f5186828701610d41565b92505060408401356001600160a01b0381168114610f6e57600080fd5b809150509250925092565b60008060008060808587031215610f8f57600080fd5b843567ffffffffffffffff80821115610fa757600080fd5b610fb388838901610d41565b95506020870135915080821115610fc957600080fd5b610fd588838901610d41565b94506040870135915080821115610feb57600080fd5b50610ff887828801610d41565b949793965093946060013593505050565b602081528151602082015260006020830151610120806040850152611032610140850183610e2f565b91506040850151601f19808685030160608701526110508483610e2f565b9350606087015191508086850301608087015261106d8483610e2f565b9350608087015160a087015260a0870151915061109560c08701836001600160a01b03169052565b60c08701519150808685030160e08701526110b08483610e2f565b935060e087015191506101008187860301818801526110cf8584610e2f565b945080880151925050506110e68286018215159052565b5090949350505050565b600181811c9082168061110457607f821691505b60208210810361112457634e487b7160e01b600052602260045260246000fd5b50919050565b6000825161113c818460208701610e0b565b9190910192915050565b602080825260169082015275141c9bd91d58dd08191bd95cc81b9bdd08195e1a5cdd60521b604082015260600190565b601f8211156111c057600081815260208120601f850160051c8101602086101561119d5750805b601f850160051c820191505b818110156111bc578281556001016111a9565b5050505b505050565b815167ffffffffffffffff8111156111df576111df610d2b565b6111f3816111ed84546110f0565b84611176565b602080601f83116001811461122857600084156112105750858301515b600019600386901b1c1916600185901b1785556111bc565b600085815260208120601f198616915b8281101561125757888601518255948401946001909101908401611238565b50858210156112755787850151600019600388901b60f8161c191681555b5050505050600190811b01905550565b6080815260006112986080830187610e2f565b82810360208401526112aa8187610e2f565b6001600160a01b0395909516604084015250506060015292915050565b6040815260006112da6040830185610e2f565b82810360208401526112ec8185610e2f565b9594505050505056fea2646970667358221220d0b47fa28021b0ea8495b4e36c1e2f7d58c0fb12a046101ad50d704600e1655464736f6c63430008150033",
  "immutableReferences": {},
  "source": "// SPDX-License-Identifier: MIT\r\npragma solidity ^0.8.21;\r\n\r\ncontract ProductRegistry {\r\n    struct Product {\r\n        uint256 productId;\r\n        string manufacturerId;\r\n        string productSN;\r\n        string productName;\r\n        uint256 productPrice;\r\n        address currentOwner;\r\n        string sellerId;\r\n        string consumerId;\r\n        bool isAuthentic;\r\n    }\r\n\r\n    mapping(string => Product) public products;\r\n\r\n    event ProductAdded(string productSN, string manufacturerId);\r\n    event ProductSoldToSeller(string productSN, string sellerId, address sellerAddress, uint256 price);\r\n    event ProductSoldToConsumer(string productSN, string consumerId, address consumerAddress, uint256 price);\r\n    event DebugEvent(string message, address currentOwner, address sender, uint256 value);\r\n\r\n    function addProduct(\r\n        string memory _manufacturerId,\r\n        string memory _productSN,\r\n        string memory _productName,\r\n        uint256 _productPrice\r\n    ) public {\r\n        require(bytes(products[_productSN].productSN).length == 0, \"Product already exists\");\r\n\r\n        products[_productSN] = Product({\r\n            productId: uint256(keccak256(abi.encodePacked(_productSN))),\r\n            manufacturerId: _manufacturerId,\r\n            productSN: _productSN,\r\n            productName: _productName,\r\n            productPrice: _productPrice,\r\n            currentOwner: msg.sender,\r\n            sellerId: \"\",\r\n            consumerId: \"\",\r\n            isAuthentic: true\r\n        });\r\n\r\n        emit ProductAdded(_productSN, _manufacturerId);\r\n    }\r\n\r\n    function sellProductToSeller(string memory _productSN, string memory _sellerId, address _sellerAddress) public payable {\r\n        Product storage product = products[_productSN];\r\n        require(bytes(product.productSN).length > 0, \"Product does not exist\");\r\n        require(product.currentOwner == msg.sender, \"Only the owner can sell\");\r\n        require(msg.value == product.productPrice, \"Incorrect ETH amount sent\");\r\n\r\n        product.sellerId = _sellerId;\r\n        product.currentOwner = _sellerAddress; // Update to seller's address\r\n\r\n        // Transfer ETH to the previous owner (manufacturer)\r\n        payable(msg.sender).transfer(msg.value);\r\n        emit ProductSoldToSeller(_productSN, _sellerId, _sellerAddress, msg.value);\r\n    }\r\n\r\n    function sellProductToConsumer(string memory _productSN, string memory _consumerId, address _consumerAddress) public payable {\r\n        Product storage product = products[_productSN];\r\n        require(bytes(product.productSN).length > 0, \"Product does not exist\");\r\n        require(product.currentOwner == msg.sender, \"Only the owner can sell\");\r\n        require(msg.value == product.productPrice, \"Incorrect ETH amount sent\");\r\n\r\n        product.consumerId = _consumerId;\r\n        product.currentOwner = _consumerAddress; // Update to consumer's address\r\n\r\n        // Transfer ETH to the previous owner (seller)\r\n        payable(msg.sender).transfer(msg.value);\r\n        emit ProductSoldToConsumer(_productSN, _consumerId, _consumerAddress, msg.value);\r\n    }\r\n\r\n    function verifyProduct(string memory _productSN) public view returns (Product memory) {\r\n        require(bytes(products[_productSN].productSN).length > 0, \"Product does not exist\");\r\n        return products[_productSN];\r\n    }\r\n}\r\n",
  "sourcePath": "E:\\Final year blockchain project\\project\\vite\\my-vite-app\\contracts\\product.sol",
  "compiler": {
    "name": "solc",
    "version": "0.8.21+commit.d9974bed.Emscripten.clang"
  },
  "schemaVersion": "3.4.16",
  "updatedAt": "2025-04-29T06:42:33.065Z",
  "networkType": "ethereum",
  "devdoc": {
    "kind": "dev",
    "methods": {},
    "version": 1
  },
  "userdoc": {
    "kind": "user",
    "methods": {},
    "version": 1
  }
}