{
  "contractName": "ProductRegistry",
  "abi": [
    {
      "anonymous": false,
      "inputs": [
        {
          "indexed": false,
          "internalType": "string",
          "name": "productSN",
          "type": "string"
        },
        {
          "indexed": false,
          "internalType": "string",
          "name": "manufacturerId",
          "type": "string"
        }
      ],
      "name": "ProductAdded",
      "type": "event"
    },
    {
      "anonymous": false,
      "inputs": [
        {
          "indexed": false,
          "internalType": "string",
          "name": "productSN",
          "type": "string"
        },
        {
          "indexed": false,
          "internalType": "string",
          "name": "consumerId",
          "type": "string"
        }
      ],
      "name": "ProductSoldToConsumer",
      "type": "event"
    },
    {
      "anonymous": false,
      "inputs": [
        {
          "indexed": false,
          "internalType": "string",
          "name": "productSN",
          "type": "string"
        },
        {
          "indexed": false,
          "internalType": "string",
          "name": "sellerId",
          "type": "string"
        }
      ],
      "name": "ProductSoldToSeller",
      "type": "event"
    },
    {
      "inputs": [
        {
          "internalType": "string",
          "name": "",
          "type": "string"
        }
      ],
      "name": "products",
      "outputs": [
        {
          "internalType": "uint256",
          "name": "productId",
          "type": "uint256"
        },
        {
          "internalType": "string",
          "name": "manufacturerId",
          "type": "string"
        },
        {
          "internalType": "string",
          "name": "productSN",
          "type": "string"
        },
        {
          "internalType": "string",
          "name": "productName",
          "type": "string"
        },
        {
          "internalType": "uint256",
          "name": "productPrice",
          "type": "uint256"
        },
        {
          "internalType": "address",
          "name": "currentOwner",
          "type": "address"
        },
        {
          "internalType": "bool",
          "name": "isAuthentic",
          "type": "bool"
        }
      ],
      "stateMutability": "view",
      "type": "function"
    },
    {
      "inputs": [
        {
          "internalType": "string",
          "name": "",
          "type": "string"
        }
      ],
      "name": "sellers",
      "outputs": [
        {
          "internalType": "string",
          "name": "sellerId",
          "type": "string"
        },
        {
          "internalType": "string",
          "name": "sellerSN",
          "type": "string"
        },
        {
          "internalType": "address",
          "name": "sellerAddress",
          "type": "address"
        }
      ],
      "stateMutability": "view",
      "type": "function"
    },
    {
      "inputs": [
        {
          "internalType": "string",
          "name": "_manufacturerId",
          "type": "string"
        },
        {
          "internalType": "string",
          "name": "_productSN",
          "type": "string"
        },
        {
          "internalType": "string",
          "name": "_productName",
          "type": "string"
        },
        {
          "internalType": "uint256",
          "name": "_productPrice",
          "type": "uint256"
        }
      ],
      "name": "addProduct",
      "outputs": [],
      "stateMutability": "nonpayable",
      "type": "function"
    },
    {
      "inputs": [
        {
          "internalType": "string",
          "name": "_sellerId",
          "type": "string"
        },
        {
          "internalType": "string",
          "name": "_sellerSN",
          "type": "string"
        }
      ],
      "name": "addSeller",
      "outputs": [],
      "stateMutability": "nonpayable",
      "type": "function"
    },
    {
      "inputs": [
        {
          "internalType": "string",
          "name": "_productSN",
          "type": "string"
        },
        {
          "internalType": "string",
          "name": "_sellerId",
          "type": "string"
        }
      ],
      "name": "sellProductToSeller",
      "outputs": [],
      "stateMutability": "nonpayable",
      "type": "function"
    },
    {
      "inputs": [
        {
          "internalType": "string",
          "name": "_productSN",
          "type": "string"
        },
        {
          "internalType": "string",
          "name": "_consumerId",
          "type": "string"
        }
      ],
      "name": "sellProductToConsumer",
      "outputs": [],
      "stateMutability": "nonpayable",
      "type": "function"
    },
    {
      "inputs": [
        {
          "internalType": "string",
          "name": "_productSN",
          "type": "string"
        }
      ],
      "name": "verifyProduct",
      "outputs": [
        {
          "internalType": "bool",
          "name": "",
          "type": "bool"
        }
      ],
      "stateMutability": "view",
      "type": "function"
    }
  ],
  "bytecode": "0x608060405234801561001057600080fd5b50610f02806100206000396000f3fe608060405234801561001057600080fd5b506004361061007d5760003560e01c80638165fed51161005b5780638165fed5146100e857806392efc453146100fb578063b2955aba1461011e578063fa2f1b4c1461013157600080fd5b80630186a423146100825780632b3ba4a2146100b15780638060ea6b146100c6575b600080fd5b610095610090366004610ae0565b610144565b6040516100a89796959493929190610b6d565b60405180910390f35b6100c46100bf366004610bd7565b610331565b005b6100d96100d4366004610ae0565b610430565b6040516100a893929190610c3b565b6100c46100f6366004610c79565b610576565b61010e610109366004610ae0565b610737565b60405190151581526020016100a8565b6100c461012c366004610bd7565b6107b9565b6100c461013f366004610bd7565b610901565b80516020818301810180516000825292820191909301209152805460018201805491929161017190610d09565b80601f016020809104026020016040519081016040528092919081815260200182805461019d90610d09565b80156101ea5780601f106101bf576101008083540402835291602001916101ea565b820191906000526020600020905b8154815290600101906020018083116101cd57829003601f168201915b5050505050908060020180546101ff90610d09565b80601f016020809104026020016040519081016040528092919081815260200182805461022b90610d09565b80156102785780601f1061024d57610100808354040283529160200191610278565b820191906000526020600020905b81548152906001019060200180831161025b57829003601f168201915b50505050509080600301805461028d90610d09565b80601f01602080910402602001604051908101604052809291908181526020018280546102b990610d09565b80156103065780601f106102db57610100808354040283529160200191610306565b820191906000526020600020905b8154815290600101906020018083116102e957829003601f168201915b5050505060048301546005909301549192916001600160a01b0381169150600160a01b900460ff1687565b6001826040516103419190610d43565b908152604051908190036020019020805461035b90610d09565b1590506103a75760405162461bcd60e51b815260206004820152601560248201527453656c6c657220616c72656164792065786973747360581b60448201526064015b60405180910390fd5b6040805160608101825283815260208101839052338183015290516001906103d0908590610d43565b908152604051908190036020019020815181906103ed9082610dae565b50602082015160018201906104029082610dae565b5060409190910151600290910180546001600160a01b0319166001600160a01b039092169190911790555050565b805160208183018101805160018252928201919093012091528054819061045690610d09565b80601f016020809104026020016040519081016040528092919081815260200182805461048290610d09565b80156104cf5780601f106104a4576101008083540402835291602001916104cf565b820191906000526020600020905b8154815290600101906020018083116104b257829003601f168201915b5050505050908060010180546104e490610d09565b80601f016020809104026020016040519081016040528092919081815260200182805461051090610d09565b801561055d5780601f106105325761010080835404028352916020019161055d565b820191906000526020600020905b81548152906001019060200180831161054057829003601f168201915b505050600290930154919250506001600160a01b031683565b6000836040516105869190610d43565b908152602001604051809103902060020180546105a290610d09565b1590506105ea5760405162461bcd60e51b815260206004820152601660248201527550726f6475637420616c72656164792065786973747360501b604482015260640161039e565b6040805160e0810190915280610604856101008301610d43565b6040516020818303038152906040528051906020012060001c8152602001858152602001848152602001838152602001828152602001336001600160a01b03168152602001600115158152506000846040516106609190610d43565b90815260405160209181900382019020825181559082015160018201906106879082610dae565b506040820151600282019061069c9082610dae565b50606082015160038201906106b19082610dae565b506080820151600482015560a08201516005909101805460c0909301511515600160a01b026001600160a81b03199093166001600160a01b03909216919091179190911790556040517f50d3c24bed1484121cd34fb35cea80691f70b0818948c325aef1206b13454433906107299085908790610e6e565b60405180910390a150505050565b60008060008360405161074a9190610d43565b9081526020016040518091039020600201805461076690610d09565b9050116107855760405162461bcd60e51b815260040161039e90610e9c565b6000826040516107959190610d43565b9081526040519081900360200190206005015460ff600160a01b9091041692915050565b600080836040516107ca9190610d43565b908152602001604051809103902060020180546107e690610d09565b9050116108055760405162461bcd60e51b815260040161039e90610e9c565b336001600160a01b031660008360405161081f9190610d43565b908152604051908190036020019020600501546001600160a01b0316146108825760405162461bcd60e51b815260206004820152601760248201527613db9b1e481d1a19481bdddb995c8818d85b881cd95b1b604a1b604482015260640161039e565b336000836040516108939190610d43565b90815260405190819003602001812060050180546001600160a01b03939093166001600160a01b0319909316929092179091557f6c5bcc1753623430d1ba55804ac8d0a93533346400b23bf34d554404badc414f906108f59084908490610e6e565b60405180910390a15050565b600080836040516109129190610d43565b9081526020016040518091039020600201805461092e90610d09565b90501161094d5760405162461bcd60e51b815260040161039e90610e9c565b336001600160a01b03166000836040516109679190610d43565b908152604051908190036020019020600501546001600160a01b0316146109ca5760405162461bcd60e51b815260206004820152601760248201527613db9b1e481d1a19481bdddb995c8818d85b881cd95b1b604a1b604482015260640161039e565b600080836040516109db9190610d43565b90815260405190819003602001812060050180546001600160a01b03939093166001600160a01b0319909316929092179091557f7723c7d9881416073fc61d5448d7a811dab9769d4b8a419d68a77bef6d65bf13906108f59084908490610e6e565b634e487b7160e01b600052604160045260246000fd5b600082601f830112610a6457600080fd5b813567ffffffffffffffff80821115610a7f57610a7f610a3d565b604051601f8301601f19908116603f01168101908282118183101715610aa757610aa7610a3d565b81604052838152866020858801011115610ac057600080fd5b836020870160208301376000602085830101528094505050505092915050565b600060208284031215610af257600080fd5b813567ffffffffffffffff811115610b0957600080fd5b610b1584828501610a53565b949350505050565b60005b83811015610b38578181015183820152602001610b20565b50506000910152565b60008151808452610b59816020860160208601610b1d565b601f01601f19169290920160200192915050565b87815260e060208201526000610b8660e0830189610b41565b8281036040840152610b988189610b41565b90508281036060840152610bac8188610b41565b608084019690965250506001600160a01b039290921660a0830152151560c090910152949350505050565b60008060408385031215610bea57600080fd5b823567ffffffffffffffff80821115610c0257600080fd5b610c0e86838701610a53565b93506020850135915080821115610c2457600080fd5b50610c3185828601610a53565b9150509250929050565b606081526000610c4e6060830186610b41565b8281036020840152610c608186610b41565b91505060018060a01b0383166040830152949350505050565b60008060008060808587031215610c8f57600080fd5b843567ffffffffffffffff80821115610ca757600080fd5b610cb388838901610a53565b95506020870135915080821115610cc957600080fd5b610cd588838901610a53565b94506040870135915080821115610ceb57600080fd5b50610cf887828801610a53565b949793965093946060013593505050565b600181811c90821680610d1d57607f821691505b602082108103610d3d57634e487b7160e01b600052602260045260246000fd5b50919050565b60008251610d55818460208701610b1d565b9190910192915050565b601f821115610da957600081815260208120601f850160051c81016020861015610d865750805b601f850160051c820191505b81811015610da557828155600101610d92565b5050505b505050565b815167ffffffffffffffff811115610dc857610dc8610a3d565b610ddc81610dd68454610d09565b84610d5f565b602080601f831160018114610e115760008415610df95750858301515b600019600386901b1c1916600185901b178555610da5565b600085815260208120601f198616915b82811015610e4057888601518255948401946001909101908401610e21565b5085821015610e5e5787850151600019600388901b60f8161c191681555b5050505050600190811b01905550565b604081526000610e816040830185610b41565b8281036020840152610e938185610b41565b95945050505050565b602080825260169082015275141c9bd91d58dd08191bd95cc81b9bdd08195e1a5cdd60521b60408201526060019056fea2646970667358221220f3f2ca561d8494d83153adafc556dd8a59da88704fa3ac77a70ea05ba1947fdf64736f6c63430008150033",
  "immutableReferences": {},
  "source": "// SPDX-License-Identifier: MIT\r\npragma solidity ^0.8.21;\r\n\r\ncontract ProductRegistry {\r\n    struct Product {\r\n        uint256 productId;\r\n        string manufacturerId;\r\n        string productSN;\r\n        string productName;\r\n        uint256 productPrice;\r\n        address currentOwner;\r\n        bool isAuthentic;\r\n    }\r\n\r\n    struct Seller {\r\n        string sellerId;\r\n        string sellerSN;\r\n        address sellerAddress;\r\n    }\r\n\r\n    mapping(string => Product) public products;\r\n    mapping(string => Seller) public sellers;\r\n\r\n    event ProductAdded(string productSN, string manufacturerId);\r\n    event ProductSoldToSeller(string productSN, string sellerId);\r\n    event ProductSoldToConsumer(string productSN, string consumerId);\r\n\r\n    function addProduct(\r\n        string memory _manufacturerId,\r\n        string memory _productSN,\r\n        string memory _productName,\r\n        uint256 _productPrice\r\n    ) public {\r\n        require(bytes(products[_productSN].productSN).length == 0, \"Product already exists\");\r\n\r\n        products[_productSN] = Product({\r\n            productId: uint256(keccak256(abi.encodePacked(_productSN))),\r\n            manufacturerId: _manufacturerId,\r\n            productSN: _productSN,\r\n            productName: _productName,\r\n            productPrice: _productPrice,\r\n            currentOwner: msg.sender,\r\n            isAuthentic: true\r\n        });\r\n\r\n        emit ProductAdded(_productSN, _manufacturerId);\r\n    }\r\n\r\n    function addSeller(string memory _sellerId, string memory _sellerSN) public {\r\n        require(bytes(sellers[_sellerId].sellerId).length == 0, \"Seller already exists\");\r\n\r\n        sellers[_sellerId] = Seller({\r\n            sellerId: _sellerId,\r\n            sellerSN: _sellerSN,\r\n            sellerAddress: msg.sender\r\n        });\r\n    }\r\n\r\n    function sellProductToSeller(string memory _productSN, string memory _sellerId) public {\r\n        require(bytes(products[_productSN].productSN).length > 0, \"Product does not exist\");\r\n        require(products[_productSN].currentOwner == msg.sender, \"Only the owner can sell\");\r\n        \r\n        products[_productSN].currentOwner = msg.sender;\r\n        \r\n        emit ProductSoldToSeller(_productSN, _sellerId);\r\n    }\r\n\r\n    function sellProductToConsumer(string memory _productSN, string memory _consumerId) public {\r\n        require(bytes(products[_productSN].productSN).length > 0, \"Product does not exist\");\r\n        require(products[_productSN].currentOwner == msg.sender, \"Only the owner can sell\");\r\n        \r\n        products[_productSN].currentOwner = address(0); // Consumer holds it off-chain\r\n        emit ProductSoldToConsumer(_productSN, _consumerId);\r\n    }\r\n\r\n    function verifyProduct(string memory _productSN) public view returns (bool) {\r\n        require(bytes(products[_productSN].productSN).length > 0, \"Product does not exist\");\r\n        return products[_productSN].isAuthentic;\r\n    }\r\n}\r\n",
  "sourcePath": "E:\\Final year blockchain project\\project\\vite\\my-vite-app\\contracts\\product.sol",
  "compiler": {
    "name": "solc",
    "version": "0.8.21+commit.d9974bed.Emscripten.clang"
  },
  "schemaVersion": "3.4.16",
  "updatedAt": "2025-03-29T10:23:54.820Z",
  "devdoc": {
    "kind": "dev",
    "methods": {},
    "version": 1
  },
  "userdoc": {
    "kind": "user",
    "methods": {},
    "version": 1
  }
}