{
  "contractName": "ProductRegistry",
  "abi": [
    {
      "anonymous": false,
      "inputs": [
        {
          "indexed": false,
          "internalType": "string",
          "name": "message",
          "type": "string"
        },
        {
          "indexed": false,
          "internalType": "address",
          "name": "currentOwner",
          "type": "address"
        },
        {
          "indexed": false,
          "internalType": "address",
          "name": "sender",
          "type": "address"
        },
        {
          "indexed": false,
          "internalType": "uint256",
          "name": "value",
          "type": "uint256"
        }
      ],
      "name": "DebugEvent",
      "type": "event"
    },
    {
      "anonymous": false,
      "inputs": [
        {
          "indexed": false,
          "internalType": "string",
          "name": "productSN",
          "type": "string"
        },
        {
          "indexed": false,
          "internalType": "string",
          "name": "manufacturerId",
          "type": "string"
        }
      ],
      "name": "ProductAdded",
      "type": "event"
    },
    {
      "anonymous": false,
      "inputs": [
        {
          "indexed": false,
          "internalType": "string",
          "name": "productSN",
          "type": "string"
        },
        {
          "indexed": false,
          "internalType": "string",
          "name": "consumerId",
          "type": "string"
        },
        {
          "indexed": false,
          "internalType": "address",
          "name": "consumerAddress",
          "type": "address"
        },
        {
          "indexed": false,
          "internalType": "uint256",
          "name": "price",
          "type": "uint256"
        }
      ],
      "name": "ProductSoldToConsumer",
      "type": "event"
    },
    {
      "anonymous": false,
      "inputs": [
        {
          "indexed": false,
          "internalType": "string",
          "name": "productSN",
          "type": "string"
        },
        {
          "indexed": false,
          "internalType": "string",
          "name": "sellerId",
          "type": "string"
        },
        {
          "indexed": false,
          "internalType": "address",
          "name": "sellerAddress",
          "type": "address"
        },
        {
          "indexed": false,
          "internalType": "uint256",
          "name": "price",
          "type": "uint256"
        }
      ],
      "name": "ProductSoldToSeller",
      "type": "event"
    },
    {
      "inputs": [
        {
          "internalType": "string",
          "name": "",
          "type": "string"
        }
      ],
      "name": "products",
      "outputs": [
        {
          "internalType": "uint256",
          "name": "productId",
          "type": "uint256"
        },
        {
          "internalType": "string",
          "name": "manufacturerId",
          "type": "string"
        },
        {
          "internalType": "string",
          "name": "productSN",
          "type": "string"
        },
        {
          "internalType": "string",
          "name": "productName",
          "type": "string"
        },
        {
          "internalType": "uint256",
          "name": "productPrice",
          "type": "uint256"
        },
        {
          "internalType": "address",
          "name": "currentOwner",
          "type": "address"
        },
        {
          "internalType": "string",
          "name": "sellerId",
          "type": "string"
        },
        {
          "internalType": "string",
          "name": "consumerId",
          "type": "string"
        },
        {
          "internalType": "bool",
          "name": "isAuthentic",
          "type": "bool"
        }
      ],
      "stateMutability": "view",
      "type": "function",
      "constant": true
    },
    {
      "inputs": [
        {
          "internalType": "string",
          "name": "_manufacturerId",
          "type": "string"
        },
        {
          "internalType": "string",
          "name": "_productSN",
          "type": "string"
        },
        {
          "internalType": "string",
          "name": "_productName",
          "type": "string"
        },
        {
          "internalType": "uint256",
          "name": "_productPrice",
          "type": "uint256"
        }
      ],
      "name": "addProduct",
      "outputs": [],
      "stateMutability": "nonpayable",
      "type": "function"
    },
    {
      "inputs": [
        {
          "internalType": "string",
          "name": "_productSN",
          "type": "string"
        },
        {
          "internalType": "string",
          "name": "_sellerId",
          "type": "string"
        }
      ],
      "name": "sellProductToSeller",
      "outputs": [],
      "stateMutability": "payable",
      "type": "function",
      "payable": true
    },
    {
      "inputs": [
        {
          "internalType": "string",
          "name": "_productSN",
          "type": "string"
        },
        {
          "internalType": "string",
          "name": "_consumerId",
          "type": "string"
        }
      ],
      "name": "sellProductToConsumer",
      "outputs": [],
      "stateMutability": "payable",
      "type": "function",
      "payable": true
    },
    {
      "inputs": [
        {
          "internalType": "string",
          "name": "_productSN",
          "type": "string"
        }
      ],
      "name": "verifyProduct",
      "outputs": [
        {
          "components": [
            {
              "internalType": "uint256",
              "name": "productId",
              "type": "uint256"
            },
            {
              "internalType": "string",
              "name": "manufacturerId",
              "type": "string"
            },
            {
              "internalType": "string",
              "name": "productSN",
              "type": "string"
            },
            {
              "internalType": "string",
              "name": "productName",
              "type": "string"
            },
            {
              "internalType": "uint256",
              "name": "productPrice",
              "type": "uint256"
            },
            {
              "internalType": "address",
              "name": "currentOwner",
              "type": "address"
            },
            {
              "internalType": "string",
              "name": "sellerId",
              "type": "string"
            },
            {
              "internalType": "string",
              "name": "consumerId",
              "type": "string"
            },
            {
              "internalType": "bool",
              "name": "isAuthentic",
              "type": "bool"
            }
          ],
          "internalType": "struct ProductRegistry.Product",
          "name": "",
          "type": "tuple"
        }
      ],
      "stateMutability": "view",
      "type": "function",
      "constant": true
    }
  ],
  "bytecode": "0x608060405234801561001057600080fd5b5061142e806100206000396000f3fe60806040526004361061004a5760003560e01c80630186a4231461004f5780638165fed51461008d57806392efc453146100af578063b2955aba146100dc578063fa2f1b4c146100ef575b600080fd5b34801561005b57600080fd5b5061006f61006a366004610ef1565b610102565b60405161008499989796959493929190610f7e565b60405180910390f35b34801561009957600080fd5b506100ad6100a8366004611018565b61040d565b005b3480156100bb57600080fd5b506100cf6100ca366004610ef1565b61062f565b60405161008491906110a8565b6100ad6100ea36600461118f565b610a1b565b6100ad6100fd36600461118f565b610ba4565b80516020818301810180516000825292820191909301209152805460018201805491929161012f906111f3565b80601f016020809104026020016040519081016040528092919081815260200182805461015b906111f3565b80156101a85780601f1061017d576101008083540402835291602001916101a8565b820191906000526020600020905b81548152906001019060200180831161018b57829003601f168201915b5050505050908060020180546101bd906111f3565b80601f01602080910402602001604051908101604052809291908181526020018280546101e9906111f3565b80156102365780601f1061020b57610100808354040283529160200191610236565b820191906000526020600020905b81548152906001019060200180831161021957829003601f168201915b50505050509080600301805461024b906111f3565b80601f0160208091040260200160405190810160405280929190818152602001828054610277906111f3565b80156102c45780601f10610299576101008083540402835291602001916102c4565b820191906000526020600020905b8154815290600101906020018083116102a757829003601f168201915b5050505060048301546005840154600685018054949592946001600160a01b039092169350906102f3906111f3565b80601f016020809104026020016040519081016040528092919081815260200182805461031f906111f3565b801561036c5780601f106103415761010080835404028352916020019161036c565b820191906000526020600020905b81548152906001019060200180831161034f57829003601f168201915b505050505090806007018054610381906111f3565b80601f01602080910402602001604051908101604052809291908181526020018280546103ad906111f3565b80156103fa5780601f106103cf576101008083540402835291602001916103fa565b820191906000526020600020905b8154815290600101906020018083116103dd57829003601f168201915b5050506008909301549192505060ff1689565b60008360405161041d919061122d565b90815260200160405180910390206002018054610439906111f3565b1590506104865760405162461bcd60e51b815260206004820152601660248201527550726f6475637420616c72656164792065786973747360501b60448201526064015b60405180910390fd5b604080516101208101909152806104a185610140830161122d565b6040516020818303038152906040528051906020012060001c8152602001858152602001848152602001838152602001828152602001336001600160a01b0316815260200160405180602001604052806000815250815260200160405180602001604052806000815250815260200160011515815250600084604051610527919061122d565b908152604051602091819003820190208251815590820151600182019061054e9082611298565b50604082015160028201906105639082611298565b50606082015160038201906105789082611298565b506080820151600482015560a08201516005820180546001600160a01b0319166001600160a01b0390921691909117905560c082015160068201906105bd9082611298565b5060e082015160078201906105d29082611298565b5061010091909101516008909101805460ff19169115159190911790556040517f50d3c24bed1484121cd34fb35cea80691f70b0818948c325aef1206b13454433906106219085908790611358565b60405180910390a150505050565b610689604051806101200160405280600081526020016060815260200160608152602001606081526020016000815260200160006001600160a01b0316815260200160608152602001606081526020016000151581525090565b6000808360405161069a919061122d565b908152602001604051809103902060020180546106b6906111f3565b9050116106d55760405162461bcd60e51b815260040161047d90611386565b6000826040516106e5919061122d565b90815260200160405180910390206040518061012001604052908160008201548152602001600182018054610719906111f3565b80601f0160208091040260200160405190810160405280929190818152602001828054610745906111f3565b80156107925780601f1061076757610100808354040283529160200191610792565b820191906000526020600020905b81548152906001019060200180831161077557829003601f168201915b505050505081526020016002820180546107ab906111f3565b80601f01602080910402602001604051908101604052809291908181526020018280546107d7906111f3565b80156108245780601f106107f957610100808354040283529160200191610824565b820191906000526020600020905b81548152906001019060200180831161080757829003601f168201915b5050505050815260200160038201805461083d906111f3565b80601f0160208091040260200160405190810160405280929190818152602001828054610869906111f3565b80156108b65780601f1061088b576101008083540402835291602001916108b6565b820191906000526020600020905b81548152906001019060200180831161089957829003601f168201915b50505091835250506004820154602082015260058201546001600160a01b031660408201526006820180546060909201916108f0906111f3565b80601f016020809104026020016040519081016040528092919081815260200182805461091c906111f3565b80156109695780601f1061093e57610100808354040283529160200191610969565b820191906000526020600020905b81548152906001019060200180831161094c57829003601f168201915b50505050508152602001600782018054610982906111f3565b80601f01602080910402602001604051908101604052809291908181526020018280546109ae906111f3565b80156109fb5780601f106109d0576101008083540402835291602001916109fb565b820191906000526020600020905b8154815290600101906020018083116109de57829003601f168201915b50505091835250506008919091015460ff16151560209091015292915050565b60008083604051610a2c919061122d565b908152602001604051809103902090506000816002018054610a4d906111f3565b905011610a6c5760405162461bcd60e51b815260040161047d90611386565b60058101546001600160a01b03163314610ac25760405162461bcd60e51b815260206004820152601760248201527613db9b1e481d1a19481bdddb995c8818d85b881cd95b1b604a1b604482015260640161047d565b80600401543414610b115760405162461bcd60e51b8152602060048201526019602482015278125b98dbdc9c9958dd0811551208185b5bdd5b9d081cd95b9d603a1b604482015260640161047d565b60068101610b1f8382611298565b506005810180546001600160a01b031916339081179091556040513480156108fc02916000818181858888f19350505050158015610b61573d6000803e3d6000fd5b507ff64a5f06285776d619776e8027c3c1487f8dcc868ecfd91c8fb038f2aafe84fc83833334604051610b9794939291906113b6565b60405180910390a1505050565b60008083604051610bb5919061122d565b908152602001604051809103902090506000816002018054610bd6906111f3565b905011610bf55760405162461bcd60e51b815260040161047d90611386565b60058101546001600160a01b03163314610c4b5760405162461bcd60e51b815260206004820152601760248201527613db9b1e481d1a19481bdddb995c8818d85b881cd95b1b604a1b604482015260640161047d565b80600401543414610c9a5760405162461bcd60e51b8152602060048201526019602482015278125b98dbdc9c9958dd0811551208185b5bdd5b9d081cd95b9d603a1b604482015260640161047d565b6005810154604080516080808252602b908201527f4265666f7265207570646174696e6720636f6e73756d6572496420616e64206360a08201526a3ab93932b73a27bbb732b960a91b60c08201526001600160a01b0390921660208301523382820152346060830152517f5424a3d4a1a091e998b883a76c4cebf3a33932464cd506975d69570f00bd5ee99181900360e00190a160078101610d3c8382611298565b506005810180546001600160a01b03191633908117909155604080516080808252602a908201527f4166746572207570646174696e6720636f6e73756d6572496420616e6420637560a082015269393932b73a27bbb732b960b11b60c082015260208101839052908101919091523460608201527f5424a3d4a1a091e998b883a76c4cebf3a33932464cd506975d69570f00bd5ee99060e00160405180910390a160058101546040516001600160a01b03909116903480156108fc02916000818181858888f19350505050158015610e18573d6000803e3d6000fd5b507fd4646990dcea679998b3d8999e2c933c5f7a14ed739561c0c79390b14dfbf7da83833334604051610b9794939291906113b6565b634e487b7160e01b600052604160045260246000fd5b600082601f830112610e7557600080fd5b813567ffffffffffffffff80821115610e9057610e90610e4e565b604051601f8301601f19908116603f01168101908282118183101715610eb857610eb8610e4e565b81604052838152866020858801011115610ed157600080fd5b836020870160208301376000602085830101528094505050505092915050565b600060208284031215610f0357600080fd5b813567ffffffffffffffff811115610f1a57600080fd5b610f2684828501610e64565b949350505050565b60005b83811015610f49578181015183820152602001610f31565b50506000910152565b60008151808452610f6a816020860160208601610f2e565b601f01601f19169290920160200192915050565b60006101208b8352806020840152610f988184018c610f52565b90508281036040840152610fac818b610f52565b90508281036060840152610fc0818a610f52565b608084018990526001600160a01b03881660a085015283810360c08501529050610fea8187610f52565b905082810360e0840152610ffe8186610f52565b9150508215156101008301529a9950505050505050505050565b6000806000806080858703121561102e57600080fd5b843567ffffffffffffffff8082111561104657600080fd5b61105288838901610e64565b9550602087013591508082111561106857600080fd5b61107488838901610e64565b9450604087013591508082111561108a57600080fd5b5061109787828801610e64565b949793965093946060013593505050565b6020815281516020820152600060208301516101208060408501526110d1610140850183610f52565b91506040850151601f19808685030160608701526110ef8483610f52565b9350606087015191508086850301608087015261110c8483610f52565b9350608087015160a087015260a0870151915061113460c08701836001600160a01b03169052565b60c08701519150808685030160e087015261114f8483610f52565b935060e0870151915061010081878603018188015261116e8584610f52565b945080880151925050506111858286018215159052565b5090949350505050565b600080604083850312156111a257600080fd5b823567ffffffffffffffff808211156111ba57600080fd5b6111c686838701610e64565b935060208501359150808211156111dc57600080fd5b506111e985828601610e64565b9150509250929050565b600181811c9082168061120757607f821691505b60208210810361122757634e487b7160e01b600052602260045260246000fd5b50919050565b6000825161123f818460208701610f2e565b9190910192915050565b601f82111561129357600081815260208120601f850160051c810160208610156112705750805b601f850160051c820191505b8181101561128f5782815560010161127c565b5050505b505050565b815167ffffffffffffffff8111156112b2576112b2610e4e565b6112c6816112c084546111f3565b84611249565b602080601f8311600181146112fb57600084156112e35750858301515b600019600386901b1c1916600185901b17855561128f565b600085815260208120601f198616915b8281101561132a5788860151825594840194600190910190840161130b565b50858210156113485787850151600019600388901b60f8161c191681555b5050505050600190811b01905550565b60408152600061136b6040830185610f52565b828103602084015261137d8185610f52565b95945050505050565b602080825260169082015275141c9bd91d58dd08191bd95cc81b9bdd08195e1a5cdd60521b604082015260600190565b6080815260006113c96080830187610f52565b82810360208401526113db8187610f52565b6001600160a01b039590951660408401525050606001529291505056fea264697066735822122076399715f3a099c8fca59bcc6807696f0ddd730ae0a9c18bec9ac34813d312c464736f6c63430008150033",
  "immutableReferences": {},
  "source": "// SPDX-License-Identifier: MIT\r\npragma solidity ^0.8.21;\r\n\r\ncontract ProductRegistry {\r\n    struct Product {\r\n        uint256 productId;\r\n        string manufacturerId;\r\n        string productSN;\r\n        string productName;\r\n        uint256 productPrice;\r\n        address currentOwner;\r\n        string sellerId;\r\n        string consumerId;\r\n        bool isAuthentic;\r\n    }\r\n\r\n    mapping(string => Product) public products;\r\n\r\n    event ProductAdded(string productSN, string manufacturerId);\r\n    event ProductSoldToSeller(string productSN, string sellerId, address sellerAddress, uint256 price);\r\n    event ProductSoldToConsumer(string productSN, string consumerId, address consumerAddress, uint256 price);\r\n    event DebugEvent(string message, address currentOwner, address sender, uint256 value);\r\n\r\n    function addProduct(\r\n        string memory _manufacturerId,\r\n        string memory _productSN,\r\n        string memory _productName,\r\n        uint256 _productPrice\r\n    ) public {\r\n        require(bytes(products[_productSN].productSN).length == 0, \"Product already exists\");\r\n\r\n        products[_productSN] = Product({\r\n            productId: uint256(keccak256(abi.encodePacked(_productSN))),\r\n            manufacturerId: _manufacturerId,\r\n            productSN: _productSN,\r\n            productName: _productName,\r\n            productPrice: _productPrice,\r\n            currentOwner: msg.sender,\r\n            sellerId: \"\",\r\n            consumerId: \"\",\r\n            isAuthentic: true\r\n        });\r\n\r\n        emit ProductAdded(_productSN, _manufacturerId);\r\n    }\r\n\r\n    function sellProductToSeller(string memory _productSN, string memory _sellerId) public payable {\r\n        Product storage product = products[_productSN];\r\n        require(bytes(product.productSN).length > 0, \"Product does not exist\");\r\n        require(product.currentOwner == msg.sender, \"Only the owner can sell\");\r\n        require(msg.value == product.productPrice, \"Incorrect ETH amount sent\");\r\n\r\n        product.sellerId = _sellerId;\r\n        product.currentOwner = msg.sender; // Update the owner to the seller\r\n\r\n        payable(msg.sender).transfer(msg.value); // Transfer ETH to the manufacturer\r\n        emit ProductSoldToSeller(_productSN, _sellerId, msg.sender, msg.value);\r\n    }\r\n\r\n    function sellProductToConsumer(string memory _productSN, string memory _consumerId) public payable {\r\n        Product storage product = products[_productSN];\r\n        require(bytes(product.productSN).length > 0, \"Product does not exist\");\r\n        require(product.currentOwner == msg.sender, \"Only the owner can sell\");\r\n        require(msg.value == product.productPrice, \"Incorrect ETH amount sent\");\r\n\r\n        emit DebugEvent(\"Before updating consumerId and currentOwner\", product.currentOwner, msg.sender, msg.value);\r\n\r\n        product.consumerId = _consumerId;\r\n        product.currentOwner = msg.sender; // Update the owner to the consumer's address\r\n\r\n        emit DebugEvent(\"After updating consumerId and currentOwner\", product.currentOwner, msg.sender, msg.value);\r\n\r\n        payable(product.currentOwner).transfer(msg.value); // Transfer ETH to the seller\r\n        emit ProductSoldToConsumer(_productSN, _consumerId, msg.sender, msg.value);\r\n    }\r\n\r\n    function verifyProduct(string memory _productSN) public view returns (Product memory) {\r\n        require(bytes(products[_productSN].productSN).length > 0, \"Product does not exist\");\r\n        return products[_productSN];\r\n    }\r\n}\r\n",
  "sourcePath": "E:\\Final year blockchain project\\project\\vite\\my-vite-app\\contracts\\product.sol",
  "compiler": {
    "name": "solc",
    "version": "0.8.21+commit.d9974bed.Emscripten.clang"
  },
  "schemaVersion": "3.4.16",
  "updatedAt": "2025-04-27T19:34:56.899Z",
  "networkType": "ethereum",
  "devdoc": {
    "kind": "dev",
    "methods": {},
    "version": 1
  },
  "userdoc": {
    "kind": "user",
    "methods": {},
    "version": 1
  }
}