{
  "contractName": "ProductRegistry",
  "abi": [
    {
      "anonymous": false,
      "inputs": [
        {
          "indexed": false,
          "internalType": "string",
          "name": "productSN",
          "type": "string"
        },
        {
          "indexed": false,
          "internalType": "string",
          "name": "manufacturerId",
          "type": "string"
        }
      ],
      "name": "ProductAdded",
      "type": "event"
    },
    {
      "anonymous": false,
      "inputs": [
        {
          "indexed": false,
          "internalType": "string",
          "name": "productSN",
          "type": "string"
        },
        {
          "indexed": false,
          "internalType": "string",
          "name": "consumerId",
          "type": "string"
        }
      ],
      "name": "ProductSoldToConsumer",
      "type": "event"
    },
    {
      "anonymous": false,
      "inputs": [
        {
          "indexed": false,
          "internalType": "string",
          "name": "productSN",
          "type": "string"
        },
        {
          "indexed": false,
          "internalType": "string",
          "name": "sellerId",
          "type": "string"
        }
      ],
      "name": "ProductSoldToSeller",
      "type": "event"
    },
    {
      "inputs": [
        {
          "internalType": "string",
          "name": "",
          "type": "string"
        }
      ],
      "name": "products",
      "outputs": [
        {
          "internalType": "uint256",
          "name": "productId",
          "type": "uint256"
        },
        {
          "internalType": "string",
          "name": "manufacturerId",
          "type": "string"
        },
        {
          "internalType": "string",
          "name": "productSN",
          "type": "string"
        },
        {
          "internalType": "string",
          "name": "productName",
          "type": "string"
        },
        {
          "internalType": "uint256",
          "name": "productPrice",
          "type": "uint256"
        },
        {
          "internalType": "address",
          "name": "currentOwner",
          "type": "address"
        },
        {
          "internalType": "bool",
          "name": "isAuthentic",
          "type": "bool"
        }
      ],
      "stateMutability": "view",
      "type": "function"
    },
    {
      "inputs": [
        {
          "internalType": "string",
          "name": "",
          "type": "string"
        }
      ],
      "name": "sellers",
      "outputs": [
        {
          "internalType": "string",
          "name": "sellerId",
          "type": "string"
        },
        {
          "internalType": "string",
          "name": "sellerSN",
          "type": "string"
        },
        {
          "internalType": "address",
          "name": "sellerAddress",
          "type": "address"
        }
      ],
      "stateMutability": "view",
      "type": "function"
    },
    {
      "inputs": [
        {
          "internalType": "string",
          "name": "_manufacturerId",
          "type": "string"
        },
        {
          "internalType": "string",
          "name": "_productSN",
          "type": "string"
        },
        {
          "internalType": "string",
          "name": "_productName",
          "type": "string"
        },
        {
          "internalType": "uint256",
          "name": "_productPrice",
          "type": "uint256"
        }
      ],
      "name": "addProduct",
      "outputs": [],
      "stateMutability": "nonpayable",
      "type": "function"
    },
    {
      "inputs": [
        {
          "internalType": "string",
          "name": "_sellerId",
          "type": "string"
        },
        {
          "internalType": "string",
          "name": "_sellerSN",
          "type": "string"
        }
      ],
      "name": "addSeller",
      "outputs": [],
      "stateMutability": "nonpayable",
      "type": "function"
    },
    {
      "inputs": [
        {
          "internalType": "string",
          "name": "_productSN",
          "type": "string"
        },
        {
          "internalType": "string",
          "name": "_sellerId",
          "type": "string"
        }
      ],
      "name": "sellProductToSeller",
      "outputs": [],
      "stateMutability": "nonpayable",
      "type": "function"
    },
    {
      "inputs": [
        {
          "internalType": "string",
          "name": "_productSN",
          "type": "string"
        },
        {
          "internalType": "string",
          "name": "_consumerId",
          "type": "string"
        }
      ],
      "name": "sellProductToConsumer",
      "outputs": [],
      "stateMutability": "nonpayable",
      "type": "function"
    },
    {
      "inputs": [
        {
          "internalType": "string",
          "name": "_productSN",
          "type": "string"
        }
      ],
      "name": "verifyProduct",
      "outputs": [
        {
          "internalType": "bool",
          "name": "",
          "type": "bool"
        }
      ],
      "stateMutability": "view",
      "type": "function"
    }
  ],
  "bytecode": "0x608060405234801561000f575f80fd5b506117318061001d5f395ff3fe608060405234801561000f575f80fd5b506004361061007b575f3560e01c80638165fed5116100595780638165fed51461010357806392efc4531461011f578063b2955aba1461014f578063fa2f1b4c1461016b5761007b565b80630186a4231461007f5780632b3ba4a2146100b55780638060ea6b146100d1575b5f80fd5b61009960048036038101906100949190610e3d565b610187565b6040516100ac9796959493929190610f6f565b60405180910390f35b6100cf60048036038101906100ca9190610ff1565b61039a565b005b6100eb60048036038101906100e69190610e3d565b6104ce565b6040516100fa93929190611067565b60405180910390f35b61011d600480360381019061011891906110d4565b610637565b005b61013960048036038101906101349190610e3d565b610832565b604051610146919061118c565b60405180910390f35b61016960048036038101906101649190610ff1565b6108d6565b005b61018560048036038101906101809190610ff1565b610b3a565b005b5f818051602081018201805184825260208301602085012081835280955050505050505f91509050805f0154908060010180546101c3906111d2565b80601f01602080910402602001604051908101604052809291908181526020018280546101ef906111d2565b801561023a5780601f106102115761010080835404028352916020019161023a565b820191905f5260205f20905b81548152906001019060200180831161021d57829003601f168201915b50505050509080600201805461024f906111d2565b80601f016020809104026020016040519081016040528092919081815260200182805461027b906111d2565b80156102c65780601f1061029d576101008083540402835291602001916102c6565b820191905f5260205f20905b8154815290600101906020018083116102a957829003601f168201915b5050505050908060030180546102db906111d2565b80601f0160208091040260200160405190810160405280929190818152602001828054610307906111d2565b80156103525780601f1061032957610100808354040283529160200191610352565b820191905f5260205f20905b81548152906001019060200180831161033557829003601f168201915b505050505090806004015490806005015f9054906101000a900473ffffffffffffffffffffffffffffffffffffffff16908060050160149054906101000a900460ff16905087565b5f6001836040516103ab919061123c565b90815260200160405180910390205f0180546103c6906111d2565b905014610408576040517f08c379a00000000000000000000000000000000000000000000000000000000081526004016103ff9061129c565b60405180910390fd5b60405180606001604052808381526020018281526020013373ffffffffffffffffffffffffffffffffffffffff16815250600183604051610449919061123c565b90815260200160405180910390205f820151815f01908161046a9190611457565b5060208201518160010190816104809190611457565b506040820151816002015f6101000a81548173ffffffffffffffffffffffffffffffffffffffff021916908373ffffffffffffffffffffffffffffffffffffffff1602179055509050505050565b6001818051602081018201805184825260208301602085012081835280955050505050505f91509050805f018054610505906111d2565b80601f0160208091040260200160405190810160405280929190818152602001828054610531906111d2565b801561057c5780601f106105535761010080835404028352916020019161057c565b820191905f5260205f20905b81548152906001019060200180831161055f57829003601f168201915b505050505090806001018054610591906111d2565b80601f01602080910402602001604051908101604052809291908181526020018280546105bd906111d2565b80156106085780601f106105df57610100808354040283529160200191610608565b820191905f5260205f20905b8154815290600101906020018083116105eb57829003601f168201915b505050505090806002015f9054906101000a900473ffffffffffffffffffffffffffffffffffffffff16905083565b5f8084604051610647919061123c565b90815260200160405180910390206002018054610663906111d2565b9050146106a5576040517f08c379a000000000000000000000000000000000000000000000000000000000815260040161069c90611570565b60405180910390fd5b6040518060e00160405280846040516020016106c1919061123c565b604051602081830303815290604052805190602001205f1c81526020018581526020018481526020018381526020018281526020013373ffffffffffffffffffffffffffffffffffffffff168152602001600115158152505f84604051610728919061123c565b90815260200160405180910390205f820151815f015560208201518160010190816107539190611457565b5060408201518160020190816107699190611457565b50606082015181600301908161077f9190611457565b506080820151816004015560a0820151816005015f6101000a81548173ffffffffffffffffffffffffffffffffffffffff021916908373ffffffffffffffffffffffffffffffffffffffff16021790555060c08201518160050160146101000a81548160ff0219169083151502179055509050507f50d3c24bed1484121cd34fb35cea80691f70b0818948c325aef1206b13454433838560405161082492919061158e565b60405180910390a150505050565b5f805f83604051610843919061123c565b9081526020016040518091039020600201805461085f906111d2565b9050116108a1576040517f08c379a00000000000000000000000000000000000000000000000000000000081526004016108989061160d565b60405180910390fd5b5f826040516108b0919061123c565b908152602001604051809103902060050160149054906101000a900460ff169050919050565b5f80836040516108e6919061123c565b90815260200160405180910390206002018054610902906111d2565b905011610944576040517f08c379a000000000000000000000000000000000000000000000000000000000815260040161093b9061160d565b60405180910390fd5b5f600182604051610955919061123c565b90815260200160405180910390205f018054610970906111d2565b9050116109b2576040517f08c379a00000000000000000000000000000000000000000000000000000000081526004016109a990611675565b60405180910390fd5b3373ffffffffffffffffffffffffffffffffffffffff165f836040516109d8919061123c565b90815260200160405180910390206005015f9054906101000a900473ffffffffffffffffffffffffffffffffffffffff1673ffffffffffffffffffffffffffffffffffffffff1614610a5f576040517f08c379a0000000000000000000000000000000000000000000000000000000008152600401610a56906116dd565b60405180910390fd5b600181604051610a6f919061123c565b90815260200160405180910390206002015f9054906101000a900473ffffffffffffffffffffffffffffffffffffffff165f83604051610aaf919061123c565b90815260200160405180910390206005015f6101000a81548173ffffffffffffffffffffffffffffffffffffffff021916908373ffffffffffffffffffffffffffffffffffffffff1602179055507f6c5bcc1753623430d1ba55804ac8d0a93533346400b23bf34d554404badc414f8282604051610b2e92919061158e565b60405180910390a15050565b5f8083604051610b4a919061123c565b90815260200160405180910390206002018054610b66906111d2565b905011610ba8576040517f08c379a0000000000000000000000000000000000000000000000000000000008152600401610b9f9061160d565b60405180910390fd5b3373ffffffffffffffffffffffffffffffffffffffff165f83604051610bce919061123c565b90815260200160405180910390206005015f9054906101000a900473ffffffffffffffffffffffffffffffffffffffff1673ffffffffffffffffffffffffffffffffffffffff1614610c55576040517f08c379a0000000000000000000000000000000000000000000000000000000008152600401610c4c906116dd565b60405180910390fd5b5f8083604051610c65919061123c565b90815260200160405180910390206005015f6101000a81548173ffffffffffffffffffffffffffffffffffffffff021916908373ffffffffffffffffffffffffffffffffffffffff1602179055507f7723c7d9881416073fc61d5448d7a811dab9769d4b8a419d68a77bef6d65bf138282604051610ce492919061158e565b60405180910390a15050565b5f604051905090565b5f80fd5b5f80fd5b5f80fd5b5f80fd5b5f601f19601f8301169050919050565b7f4e487b71000000000000000000000000000000000000000000000000000000005f52604160045260245ffd5b610d4f82610d09565b810181811067ffffffffffffffff82111715610d6e57610d6d610d19565b5b80604052505050565b5f610d80610cf0565b9050610d8c8282610d46565b919050565b5f67ffffffffffffffff821115610dab57610daa610d19565b5b610db482610d09565b9050602081019050919050565b828183375f83830152505050565b5f610de1610ddc84610d91565b610d77565b905082815260208101848484011115610dfd57610dfc610d05565b5b610e08848285610dc1565b509392505050565b5f82601f830112610e2457610e23610d01565b5b8135610e34848260208601610dcf565b91505092915050565b5f60208284031215610e5257610e51610cf9565b5b5f82013567ffffffffffffffff811115610e6f57610e6e610cfd565b5b610e7b84828501610e10565b91505092915050565b5f819050919050565b610e9681610e84565b82525050565b5f81519050919050565b5f82825260208201905092915050565b5f5b83811015610ed3578082015181840152602081019050610eb8565b5f8484015250505050565b5f610ee882610e9c565b610ef28185610ea6565b9350610f02818560208601610eb6565b610f0b81610d09565b840191505092915050565b5f73ffffffffffffffffffffffffffffffffffffffff82169050919050565b5f610f3f82610f16565b9050919050565b610f4f81610f35565b82525050565b5f8115159050919050565b610f6981610f55565b82525050565b5f60e082019050610f825f83018a610e8d565b8181036020830152610f948189610ede565b90508181036040830152610fa88188610ede565b90508181036060830152610fbc8187610ede565b9050610fcb6080830186610e8d565b610fd860a0830185610f46565b610fe560c0830184610f60565b98975050505050505050565b5f806040838503121561100757611006610cf9565b5b5f83013567ffffffffffffffff81111561102457611023610cfd565b5b61103085828601610e10565b925050602083013567ffffffffffffffff81111561105157611050610cfd565b5b61105d85828601610e10565b9150509250929050565b5f6060820190508181035f83015261107f8186610ede565b905081810360208301526110938185610ede565b90506110a26040830184610f46565b949350505050565b6110b381610e84565b81146110bd575f80fd5b50565b5f813590506110ce816110aa565b92915050565b5f805f80608085870312156110ec576110eb610cf9565b5b5f85013567ffffffffffffffff81111561110957611108610cfd565b5b61111587828801610e10565b945050602085013567ffffffffffffffff81111561113657611135610cfd565b5b61114287828801610e10565b935050604085013567ffffffffffffffff81111561116357611162610cfd565b5b61116f87828801610e10565b9250506060611180878288016110c0565b91505092959194509250565b5f60208201905061119f5f830184610f60565b92915050565b7f4e487b71000000000000000000000000000000000000000000000000000000005f52602260045260245ffd5b5f60028204905060018216806111e957607f821691505b6020821081036111fc576111fb6111a5565b5b50919050565b5f81905092915050565b5f61121682610e9c565b6112208185611202565b9350611230818560208601610eb6565b80840191505092915050565b5f611247828461120c565b915081905092915050565b7f53656c6c657220616c72656164792065786973747300000000000000000000005f82015250565b5f611286601583610ea6565b915061129182611252565b602082019050919050565b5f6020820190508181035f8301526112b38161127a565b9050919050565b5f819050815f5260205f209050919050565b5f6020601f8301049050919050565b5f82821b905092915050565b5f600883026113167fffffffffffffffffffffffffffffffffffffffffffffffffffffffffffffffff826112db565b61132086836112db565b95508019841693508086168417925050509392505050565b5f819050919050565b5f61135b61135661135184610e84565b611338565b610e84565b9050919050565b5f819050919050565b61137483611341565b61138861138082611362565b8484546112e7565b825550505050565b5f90565b61139c611390565b6113a781848461136b565b505050565b5b818110156113ca576113bf5f82611394565b6001810190506113ad565b5050565b601f82111561140f576113e0816112ba565b6113e9846112cc565b810160208510156113f8578190505b61140c611404856112cc565b8301826113ac565b50505b505050565b5f82821c905092915050565b5f61142f5f1984600802611414565b1980831691505092915050565b5f6114478383611420565b9150826002028217905092915050565b61146082610e9c565b67ffffffffffffffff81111561147957611478610d19565b5b61148382546111d2565b61148e8282856113ce565b5f60209050601f8311600181146114bf575f84156114ad578287015190505b6114b7858261143c565b86555061151e565b601f1984166114cd866112ba565b5f5b828110156114f4578489015182556001820191506020850194506020810190506114cf565b86831015611511578489015161150d601f891682611420565b8355505b6001600288020188555050505b505050505050565b7f50726f6475637420616c726561647920657869737473000000000000000000005f82015250565b5f61155a601683610ea6565b915061156582611526565b602082019050919050565b5f6020820190508181035f8301526115878161154e565b9050919050565b5f6040820190508181035f8301526115a68185610ede565b905081810360208301526115ba8184610ede565b90509392505050565b7f50726f6475637420646f6573206e6f74206578697374000000000000000000005f82015250565b5f6115f7601683610ea6565b9150611602826115c3565b602082019050919050565b5f6020820190508181035f830152611624816115eb565b9050919050565b7f53656c6c657220646f6573206e6f7420657869737400000000000000000000005f82015250565b5f61165f601583610ea6565b915061166a8261162b565b602082019050919050565b5f6020820190508181035f83015261168c81611653565b9050919050565b7f4f6e6c7920746865206f776e65722063616e2073656c6c0000000000000000005f82015250565b5f6116c7601783610ea6565b91506116d282611693565b602082019050919050565b5f6020820190508181035f8301526116f4816116bb565b905091905056fea2646970667358221220d8d0c8d62f83a8efb04a4514ba4faac6818fd823a1916044ed9aaaa92541b76064736f6c63430008150033",
  "immutableReferences": {},
  "source": "// SPDX-License-Identifier: MIT\r\npragma solidity ^0.8.21;\r\n\r\ncontract ProductRegistry {\r\n    struct Product {\r\n        uint256 productId;\r\n        string manufacturerId;\r\n        string productSN;\r\n        string productName;\r\n        uint256 productPrice;\r\n        address currentOwner;\r\n        bool isAuthentic;\r\n    }\r\n\r\n    struct Seller {\r\n        string sellerId;\r\n        string sellerSN;\r\n        address sellerAddress;\r\n    }\r\n\r\n    mapping(string => Product) public products;\r\n    mapping(string => Seller) public sellers;\r\n\r\n    event ProductAdded(string productSN, string manufacturerId);\r\n    event ProductSoldToSeller(string productSN, string sellerId);\r\n    event ProductSoldToConsumer(string productSN, string consumerId);\r\n\r\n    function addProduct(\r\n        string memory _manufacturerId,\r\n        string memory _productSN,\r\n        string memory _productName,\r\n        uint256 _productPrice\r\n    ) public {\r\n        require(bytes(products[_productSN].productSN).length == 0, \"Product already exists\");\r\n\r\n        products[_productSN] = Product({\r\n            productId: uint256(keccak256(abi.encodePacked(_productSN))),\r\n            manufacturerId: _manufacturerId,\r\n            productSN: _productSN,\r\n            productName: _productName,\r\n            productPrice: _productPrice,\r\n            currentOwner: msg.sender,\r\n            isAuthentic: true\r\n        });\r\n\r\n        emit ProductAdded(_productSN, _manufacturerId);\r\n    }\r\n\r\n    function addSeller(string memory _sellerId, string memory _sellerSN) public {\r\n        require(bytes(sellers[_sellerId].sellerId).length == 0, \"Seller already exists\");\r\n\r\n        sellers[_sellerId] = Seller({\r\n            sellerId: _sellerId,\r\n            sellerSN: _sellerSN,\r\n            sellerAddress: msg.sender\r\n        });\r\n    }\r\n\r\n    function sellProductToSeller(string memory _productSN, string memory _sellerId) public {\r\n        require(bytes(products[_productSN].productSN).length > 0, \"Product does not exist\");\r\n        require(bytes(sellers[_sellerId].sellerId).length > 0, \"Seller does not exist\");\r\n        require(products[_productSN].currentOwner == msg.sender, \"Only the owner can sell\");\r\n        \r\n        products[_productSN].currentOwner = sellers[_sellerId].sellerAddress;\r\n        emit ProductSoldToSeller(_productSN, _sellerId);\r\n    }\r\n\r\n    function sellProductToConsumer(string memory _productSN, string memory _consumerId) public {\r\n        require(bytes(products[_productSN].productSN).length > 0, \"Product does not exist\");\r\n        require(products[_productSN].currentOwner == msg.sender, \"Only the owner can sell\");\r\n        \r\n        products[_productSN].currentOwner = address(0); // Consumer holds it off-chain\r\n        emit ProductSoldToConsumer(_productSN, _consumerId);\r\n    }\r\n\r\n    function verifyProduct(string memory _productSN) public view returns (bool) {\r\n        require(bytes(products[_productSN].productSN).length > 0, \"Product does not exist\");\r\n        return products[_productSN].isAuthentic;\r\n    }\r\n}\r\n",
  "sourcePath": "E:\\Final year blockchain project\\project\\vite\\my-vite-app\\contracts\\product.sol",
  "compiler": {
    "name": "solc",
    "version": "0.8.21+commit.d9974bed.Emscripten.clang"
  },
  "schemaVersion": "3.4.16",
  "updatedAt": "2025-03-08T06:34:17.969Z",
  "devdoc": {
    "kind": "dev",
    "methods": {},
    "version": 1
  },
  "userdoc": {
    "kind": "user",
    "methods": {},
    "version": 1
  }
}